:020000040800F2
:1000000028100020C1350008813300088333000820
:10001000853300088733000889330008000000009A
:100020000000000000000000000000008B3300080A
:100030008D330008000000008F3300089133000862
:10004000F5350008F9350008FD35000801360008CF
:1000500005360008093600080D360008113600087C
:1000600015360008193600081D360008213600082C
:1000700025360008293600082D36000831360008DC
:1000800035360008393600083D360008413600088C
:1000900045360008493600084D360008A9330008E7
:1000A0005136000855360008593600085D360008FC
:1000B00061360008F5330008653600086936000827
:1000C0006D3600087136000875360008793600086C
:1000D0007D3600088136000885360008893600081C
:1000E000313400088D360008913600089536000836
:1000F000993600089D360008A1360008A53600088C
:10010000A9360008AD360008B1360008B53600083B
:10011000B9360008BD360008C1360008C5360008EB
:10012000C9360008CD360008D1360008D53600089B
:10013000D9360008DD360008E1360008E53600084B
:10014000E9360008ED360008F1360008F5360008FB
:10015000F9360008FD3600080137000805370008A9
:10016000093700080D370008113700081537000857
:10017000193700081D37000821370008000000006B
:10018000253700082937000810B50400002C01D1DC
:1001900001202FE094F83D00002805D1002084F8CC
:1001A0003C00200000F08AFA022084F83D00211D66
:1001B000206800F094F9012084F84600012084F8BA
:1001C0003E00012084F83F00012084F84000012017
:1001D00084F84100012084F84200012084F84300A3
:1001E000012084F84400012084F84500012084F8AF
:1001F0003D00002010BD010091F83D00012801D014
:10020000012044E0022081F83D000868C06850F0F9
:1002100001000B68D8600868DFF87430984221D07C
:100220000868B0F1804F1DD00868DFF86830984248
:1002300018D00868DFF86030984213D00868DFF8FB
:100240005C3098420ED00868DFF85430984209D0EC
:100250000868DFF85030984204D00868DFF848306A
:1002600098420DD10868806810F007000200062A45
:100270000CD00868006850F001000B68186005E0B9
:100280000868006850F001000B6818600020704793
:10029000000001400004004000080040000C004045
:1002A00000040140004001400018004070B5040007
:1002B0002068C56820680669B00718D5A80716D554
:1002C0007FF00200216808610120207720688069A2
:1002D00010F0030F03D0200000F012FA05E0200018
:1002E00000F00FFA200000F00DFA002020777007D0
:1002F00018D5680716D57FF0040021680861022030
:1003000020772068806910F4407F03D0200000F03F
:10031000F7F905E0200000F0F4F9200000F0F2F910
:1003200000202077300718D5280716D57FF0080061
:1003300021680861042020772068C06910F0030F4D
:1003400003D0200000F0DCF905E0200000F0D9F92E
:10035000200000F0D7F900202077F00618D5E80635
:1003600016D57FF0100021680861082020772068EA
:10037000C06910F4407F03D0200000F0C1F905E00F
:10038000200000F0BEF9200000F0BCF9002020772A
:10039000F00708D5E80706D57FF00100216808615D
:1003A000200000F0B0F9300608D5280606D57FF009
:1003B000800021680861200000F0A6F9700608D5C9
:1003C000680606D57FF0400021680861200000F033
:1003D0009CF9B00608D5A80606D57FF02000216854
:1003E0000861200000F092F970BDF8B504000D001E
:1003F000002694F83C00012801D102206EE0012083
:1004000084F83C00022084F83D002068876837F0BB
:10041000770737F47F4720688760286800284ED028
:1004200010284CD020284AD0302848D040283CD032
:10043000502826D060282ED0702807D0B0F5805FD5
:1004400003D0B0F5005F0FD03EE03FE0EB686A6894
:10045000A968206800F0EDF82068806850F0770007
:1004600007002068876031E0EB686A68A968206847
:1004700000F0DFF82068806850F4804021688860D0
:1004800024E0EA686968206800F0A6F85021206836
:1004900000F0C7F81AE0EA686968206800F0AEF872
:1004A0006021206800F0BDF810E0EA686968206803
:1004B00000F092F84021206800F0B3F806E02968C7
:1004C000206800F0AEF801E001200600012084F869
:1004D0003D00002084F83C003000C0B2F2BD10B4F2
:1004E0000468DFF8C830984212D0B0F1804F0FD0C6
:1004F000DFF8BC2090420BD0DFF8B820904207D044
:10050000DFF8B420904203D0DFF8B020904203D14E
:1005100034F070044A68144398422AD0B0F1804FF6
:1005200027D0DFF88C20904223D0DFF8882090423B
:100530001FD0DFF8842090421BD0DFF8802090424B
:1005400017D0DFF87C20904213D0DFF8782090425B
:100550000FD0DFF8742090420BD0DFF8702090426B
:1005600007D0DFF86C20904203D0DFF8682090427B
:1005700003D134F44074CA68144334F080044A69E7
:1005800014438A68C2620A688262984202D00B4AA7
:10059000904201D10A690263026852F004020260CB
:1005A00001224261046010BC70470000000001405D
:1005B0000004004000080040000C0040000401401E
:1005C0000040014000440140004801400018004044
:1005D000001C00400020004010B4046A036A5B085D
:1005E0005B000362836933F0F00353EA021334F0D3
:1005F0000A040C438361046210BC704710B4046A9F
:10060000036A33F010030362836933F4704353EADF
:10061000023334F0A00454EA01148361046210BC74
:100620007047826832F070020A4352F0070282601B
:10063000704710B4846834F47F440C43144354EA84
:100640000324846010BC704710B586B010220021CE
:1006500002A800F05CF808220021684600F057F874
:10066000244C25482060002060600020A06040F2FB
:100670004730E060002020610020A0612000FFF7EB
:1006800083FD002801D000F0F3F84FF48050029071
:1006900002A92000FFF7A9FE002801D000F0E8F829
:1006A00020200090002001906946200000F0E2F830
:1006B000002801D000F0DCF806B010BD1CB5040025
:1006C00020680D49884213D1002000900B48016832
:1006D00051F002010160006810F0020000900098E3
:1006E000002200211D2000F097F91D2000F0A9F93B
:1006F00013BD0000C80A002000040040403802403A
:10070000704770477047704770477047704710B523
:10071000044610460A460146204600F0AFF920463E
:1007200010BD0EE002684368024408305FEAC37CF3
:1007300044BF4B445B1E52F804CB43F804CB091F63
:10074000F9D150F8041B0029ECD1704710B50020F6
:100750004249087000F0C6F900F029F800F0DCF911
:1007600000F0A4FA00F0C3FA00F06CFB00F0C8FB44
:1007700000F0FEFB00F07AFC00F092FC00F01CFDA3
:1007800000F038FD00F0CAFDFFF75EFF3448FFF7C8
:1007900032FD344C01224FF48041200000F058FF1C
:1007A00001224FF40041200000F052FFFEE780B527
:1007B00092B03022002106A8FFF7A9FF14220021E1
:1007C00001A8FFF7A4FF002000902748016851F01E
:1007D00080510160006810F0805000900098002067
:1007E00000902248016851F480410160006810F4D3
:1007F000804000900098092006905FF480300790B8
:1008000001200B9002200C905FF480000D901920C5
:100810000E904FF4A8700F900220109007201190B6
:1008200006A800F05FFF002801D000F021F80F209B
:10083000019002200290002003904FF4A0500490F9
:100840004FF480500590052101A801F041F90028DE
:1008500001D000F00DF813B000BD0000260C002000
:10086000C80A0020001002404038024000700040DA
:1008700072B6FEE730B4020092F83C00012801D1C4
:1008800002203CE0012082F83C00022082F83D007A
:10089000106843681068846833F070030868034385
:1008A000106843601068174DA8421BD01068B0F163
:1008B000804F17D01068144DA84213D01068134D04
:1008C000A8420FD01068124DA8420BD01068114DED
:1008D000A84207D01068104DA84203D010680F4DF1
:1008E000A84205D134F0800448680443106884604D
:1008F000012082F83D00002082F83C00002030BC3E
:100900007047000000000140000400400008004063
:10091000000C00400004014000400140001800406D
:1009200010B410F00703DFF8344122684FF6FF01DE
:100930000A4052EA0322DFF828110A43226010BC61
:100940007047DFF818010068C0F30220704700000C
:10095000010049B200290AD4012210F01F018A4087
:10096000DFF8001103005BB25B0941F823207047F8
:1009700010B4020052B2002A05D40A013A4B040016
:1009800064B21A5508E00A01384B040064B214F04E
:100990000F04234403F8042C10BC704770B4030008
:1009A00013F00704D4F10700052801D3042001E067
:1009B000D4F10700251D072D01D2002500E0E51E1A
:1009C000012616FA00F0401E0140A94016FA05F56E
:1009D0006D1E2A401143080070BC704710B504001A
:1009E000601EB0F1807F01D301200EE0601E20491F
:1009F00008600F215FF0FF30FFF7BAFF00201D49AC
:100A0000086007201C490860002010BD10B50400D4
:100A10002000FFF785FF10BD2DE9F04104000D0017
:100A200016000027FFF78DFF804632002900404660
:100A3000FFF7B4FF0100200040B2FFF799FFBDE8C7
:100A4000F08110B50400200040B2FFF781FF10BD17
:100A500010B504002000FFF7C1FF10BD0CED00E051
:100A60000000FA0500E100E000E400E018ED00E01D
:100A700014E000E018E000E010E000E062F30F2274
:100A800062F31F42401810F0030308D0C91A1FD3A5
:100A9000DB0748BF00F8012D28BF20F8022D130006
:100AA00030B414461546103928BF20E93C00FAD866
:100AB000490728BF20E90C0048BF40F8042D8900F1
:100AC00028BF20F8022D48BF00F8012D30BC704728
:100AD000C91818BF00F8012DCB0728BF00F8012D59
:100AE0007047000080B50B48016851F40071016047
:100AF000016851F480610160016851F48071016006
:100B00000320FFF783FF0F2001F0AAF801F0CEF8D1
:100B1000002002BD003C0240F8B586B0142200213E
:100B20006846FFF7F4FD002005905A48016851F02F
:100B300004010160016811F004010591059900218B
:100B40000591016851F080010160016811F0800198
:100B50000591059900210591016851F0010101609D
:100B6000016811F0010105910599002105910168C5
:100B700051F010010160016811F010010591059913
:100B800000210591016851F002010160016811F036
:100B900002010591059900210591016851F00801B4
:100BA0000160006810F00800059005983A4C00229A
:100BB0004FF46041200000F04BFD384D00228021B1
:100BC000280000F045FD364E00228021300000F064
:100BD0003FFD4FF4005000905FF48817019700200C
:100BE000029069462F4800F031FC202000900197C8
:100BF0000020029069462C4800F028FC4FF4A050D9
:100C0000009000200190002002906946200000F032
:100C10001DFC4FF40060009001970020029069468F
:100C2000200000F013FC4FF4604000900120019080
:100C300000200290002003906946200000F006FC8E
:100C4000802000900120019000200290002003905D
:100C50006946280000F0FAFB8020009001200190F6
:100C600000200290002003906946300000F0EEFB67
:100C7000002200211720FFF7CFFE1720FFF7E1FE2B
:100C8000002200212820FFF7C7FE2820FFF7D9FE09
:100C900007B0F0BD3038024000100240000C0240A6
:100CA00000040240000802400000024080B55C4899
:100CB0005C49016010214160002181600021C16018
:100CC000002101610021416100210176002141766E
:100CD000002181760021C176002101770021417732
:100CE00001F004F8002801D0FFF7C2FD01BD80B576
:100CF0004D484E4901601021416000218160002172
:100D0000C1600021016100214161002101760021C3
:100D10004176002181760021C176002101770021F2
:100D2000417700F0E3FF002801D0FFF7A1FD01BDEE
:100D300010B586B004001422002101A8FFF7E7FCDB
:100D40002068384988422DD139480168491C016022
:100D5000006801280BD1002000903648016851F04E
:100D600000710160006810F0007000900098002091
:100D700000903148016851F008010160006810F0EE
:100D800008000090009803200190022002900020AB
:100D90000390032004900920059001A9274800F042
:100DA00055FB3BE020682149884237D10020009064
:100DB0002049086850F080600860086810F0806082
:100DC000009000981A480268521C026000680128CE
:100DD0000AD100200090086850F000700860086890
:100DE00010F00070009000980020009012480168F8
:100DF00051F002010160006810F0020000900098BC
:100E000060200190022002900020039003200490B3
:100E10000920059001A90A4800F018FB06B010BD92
:100E2000A00B002000640040C80B002000680040B8
:100E3000100C00204038024030380240000C0240C4
:100E40000004024080B528482849016028494160D3
:100E5000002181600021C1604FF4804101610021C7
:100E60004161002181610021C1610021016200F026
:100E7000F3FF002801D0FFF7FBFC01BD10B586B0E1
:100E800004001422002101A8FFF741FC2068174943
:100E9000884226D1002000901648016851F00201D6
:100EA0000160006810F00200009000984FF440705C
:100EB000019012200290002003900320049004204F
:100EC000059001A90C4800F0C1FA002000900B48E1
:100ED000016851F400110160006810F400100090E6
:100EE000009806B010BD00002C0A002000540040FD
:100EF000A086010030380240000402404038024021
:100F000080B5184818490160002141607F21816047
:100F1000FF21C16000210161002141610021816147
:100F200001F090F8002801D0FFF7A2FC01BD1FB529
:100F30000400102200216846FFF7E9FB20680A49F7
:100F400088420ED1022000904FF400700390684652
:100F500001F036F9002801D0FFF78AFC012003498F
:100F600008601FBDF00B0020002800403C0E4742E7
:100F700080B53848384901604FF4827141600021E2
:100F800081600021C16000210161002141614FF4B5
:100F9000007181610021C161002101620021416273
:100FA000002181620A21C16201F0BAF9002801D052
:100FB000FFF75EFC01BD10B586B0040014220021CD
:100FC00001A8FFF7A4FB2068234988423FD10020F5
:100FD00000902248016851F480410160006810F4DB
:100FE000804000900098002000901D48016851F05A
:100FF00004010160016811F00401009100990021D1
:101000000091016851F002010160006810F00200D7
:10101000009000980C200190022002900020039084
:10102000032004900520059001A90E4800F00EFA57
:101030004FF4806001900220029000200390032072
:1010400004900520059001A9074800F0FFF906B0BB
:1010500010BD0000D4090020003800404038024094
:1010600030380240000802400004024080B5494880
:10107000494901605FF4E131416000218160002154
:10108000C160002101610C214161002181610021C9
:10109000C16101F0ADF9002801D0FFF7E9FB01BD06
:1010A00080B53E483E4901605FF4E1314160002176
:1010B00081600021C160002101610C21416100219A
:1010C00081610021C16101F093F9002801D0FFF78F
:1010D000CFFB01BD10B586B004001422002101A889
:1010E000FFF715FB20682C49884227D1002000908B
:1010F0002C48016851F010010160006810F01000E8
:1011000000900098002000902748016851F00101EC
:101110000160006810F00100009000984FF4C0607A
:1011200001900220029000200390032004900720E9
:10113000059001A91D4800F089F929E020681849A7
:10114000884225D1002000901948016851F40031EF
:101150000160006810F400300090009800200090BA
:101160001148016851F008010160006810F00800A2
:1011700000900098602001900220029000200390CF
:10118000032004900720059001A90A4800F05EF9A9
:1011900006B010BD100B002000100140580B0020BD
:1011A0000044004044380240303802400000024011
:1011B00040380240000C024080B550485FF0A0412A
:1011C0000160042101710221C1710021817102219C
:1011D0004172002181720021C1720021017300213E
:1011E00081730021C17301F079FA002801D0FFF763
:1011F0003FFB01BD80B542484249016006210171B3
:101200000221C1710021817102214172002181728C
:101210000021C17200210173002181730021C1737B
:101220000021017401F05AFA002801D0FFF720FBD9
:1012300001BD38B586B004001422002101A8FFF7D3
:1012400066FA2068B0F1A04F2CD1002000902E4803
:10125000016851F001010160006810F00100009088
:1012600000984FF4C050019002200290002003909B
:10127000032004900A20059001A9244800F0E6F814
:101280002348016851F0800101600020009021484E
:10129000016851F480410160006810F480400090C2
:1012A000009829E020681749884225D10020009045
:1012B000154D286850F002002860286810F00200E0
:1012C000009000984FF440400190022002900020CE
:1012D0000390032004900C20059001A90E4800F013
:1012E000B5F800200090286850F000502860286869
:1012F00010F000500090009807B030BD0C000020A6
:10130000F004002000000440303802400000024099
:101310003438024044380240000402401FB5102215
:1013200000216846FFF7F3F9414C424820605FF422
:10133000803060600020A0600120206101202076C4
:10134000002084F820000020E0623B48A0620020DA
:10135000E0600220E061002084F83000002060613D
:10136000200001F075FA002801D0FFF781FA002073
:10137000009001200190002002906946200001F0B9
:1013800099FA002801D0FFF773FA0A200090022092
:1013900001906946200001F08DFA002801D0FFF786
:1013A00067FA1FBD10B586B004001422002101A801
:1013B000FFF7ADF920681F49884236D10020009020
:1013C0001E48016851F480710160006810F480705B
:1013D00000900098002000901948016851F0040125
:1013E0000160016811F00401009100990021009151
:1013F000016851F001010160006810F001000090E7
:10140000009801200190032002900020039001A980
:101410000C4800F01BF801200190032002900020EE
:10142000039001A9084800F011F806B010BD0000B3
:10143000800A0020002001400100000F44380240D3
:10144000303802400008024000000240F8B5002396
:10145000002400250026102E80F0F980012717FABD
:1014600006F213000A681A4014009C4240F0ED8016
:101470000A7912F00302012A04D00A7912F0030259
:10148000022A1BD1D0F808C05FF0030E72001EFACA
:1014900002FE3CEA0E0CD1F80CE072001EFA02FECD
:1014A0005EEA0C0CC0F808C04268B740BA434F6807
:1014B000C7F30017B7403A43150045600A7912F0A8
:1014C0000302032A10D0C7685FF0030C72001CFAF5
:1014D00002FC37EA0C07D1F808C072001CFA02FCC3
:1014E0005CEA07073D00C5600A7912F00302022A90
:1014F0001AD13200D20800EB8202126A0F275FEA8B
:10150000860C1CF01C0C17FA0CF7BA430F695FEA43
:10151000860C1CF01C0C17FA0CF73A43150032002D
:10152000D20800EB8202156207685FF0030C7200BC
:101530001CFA02FC37EA0C0791F804C01CF0030CFB
:1015400072001CFA02FC5CEA07073D0005604A686D
:1015500012F4403F79D000220092DFF84C21176846
:1015600057F480471760126812F480420092009A84
:101570004E4F3200920857F822205FF00F0C5FEABE
:10158000860E1EF00C0E1CFA0EFC32EA0C02DFF87E
:1015900020C1604501D1002523E0464DA84201D17C
:1015A00001251EE0444DA84201D1022519E0434D1A
:1015B000A84201D1032514E0414DA84201D10425E0
:1015C0000FE0404DA84201D105250AE03E4DA8425A
:1015D00001D1062505E03D4DA84201D1072500E0D7
:1015E0000825EDB25FEA860C1CF00C0C15FA0CF520
:1015F0002A433500AD0847F82520354F3D68A543FF
:10160000D1F804C05FEACC2C00D525433D60314FB2
:101610003A68A243D1F804C05FEA8C2C00D522437B
:101620003A602D4D2F68A743D1F804C05FEA8C3C87
:1016300000D527432F60294A1568A543D1F804C077
:101640005FEACC3C00D525431560761C03E7F1BD6D
:101650001300DBB2002B03D00B009BB2836103E0CD
:101660000B009BB21B048361704710B442690B00EE
:101670009BB213400C00A4B2944354EA0344846127
:1016800010BC704710B5040015480168220092B2E2
:10169000114206D0210089B20160200080B201F021
:1016A0007FFA10BD000000004438024008380140B5
:1016B000000002400004024000080240000C02400A
:1016C000001002400014024000180240001C0240BA
:1016D000083C01400C3C0140043C0140003C0140FE
:1016E000143C01402DE9F8430400002C01D10120F5
:1016F000D8E12078C0075FD5DFF8AC03016811F0AE
:101700000C01042909D0006810F00C0008280ED143
:10171000DFF898030068400209D5DFF894030068F9
:10172000800349D56068002846D10120BAE160688D
:10173000B0F5803F06D1DFF87803016851F48031BD
:10174000016018E06068B0F5A02F0AD1DFF86003EF
:10175000016851F480210160016851F48031016019
:1017600009E0DFF84C03016831F480310160016861
:1017700031F480210160606800280ED001F012FA77
:101780000500DFF82C030068800315D401F00AFA85
:10179000401B6528F5D3032084E101F003FA05001E
:1017A000DFF80C030068800306D501F0FBF9401B4D
:1017B0006528F5D3032075E1207880074CD5DFF844
:1017C000E802016811F00C0F08D0006810F00C005E
:1017D000082814D1B5480068400210D4B448016804
:1017E000890704D5E168012901D001205AE1016887
:1017F00031F0F801226951EAC20101602CE0E06891
:10180000002818D00120AB49086001F0CBF9050091
:10181000A7480168890706D401F0C4F9401B0328D2
:10182000F6D303203EE1016831F0F801226951EA64
:10183000C201016010E000209E49086001F0B2F989
:1018400005009B480068800706D501F0ABF9401BF6
:101850000328F6D3032025E12078000724D560690A
:10186000002810D001209449086001F09BF9050080
:1018700092480068800717D401F094F9401B0328B0
:10188000F6D303200EE100208B49086001F08AF9AD
:1018900005008A480068800706D501F083F9401BDF
:1018A0000328F6D30320FDE0207840077CD50027ED
:1018B000DFF80C82D8F80000C0000FD400200090A0
:1018C000D8F8000050F08050C8F80000D8F80000A8
:1018D00010F080500090009801200700DFF8E4919C
:1018E000D9F80000C00513D4D9F8000050F4807076
:1018F000C9F8000001F056F90500D9F80000C0054C
:1019000006D401F04FF9401B0328F6D30320C9E0A9
:10191000A068012805D16C48016851F001010160FF
:1019200015E0A068052809D16748016851F0040155
:101930000160016851F00101016008E0624801683E
:10194000490849000160016831F004010160A068A4
:1019500000280FD001F026F905005B4800688007D9
:1019600018D401F01FF9401B41F289318842F4D3A9
:10197000032097E001F016F905005348006880073E
:1019800008D501F00FF9401B41F289318842F4D3A8
:10199000032087E03800C0B2012805D1D8F8000044
:1019A00030F08050C8F80000A069002879D03E4887
:1019B000006810F00C00082847D0A069022833D135
:1019C000424F0020386001F0EDF88046DFF8E090EB
:1019D000D9F80000800107D501F0E4F8B0EB080069
:1019E0000328F3D303205DE0E169206A0143606AC4
:1019F00051EA8011A06A4008401E51EA0041E06AA5
:101A000051EA0061294801600120386001F0CAF8FC
:101A10000500D9F80000800143D401F0C3F8401B51
:101A20000328F6D303203DE000202849086001F098
:101A3000B9F805001E480068800132D501F0B2F8FF
:101A4000401B0328F6D303202CE0A069012801D114
:101A5000012027E0154800680600A06901281ED073
:101A600016F48000E169884219D116F03F00216A1E
:101A7000884214D147F6C0703040616AB0EB811FD4
:101A80000DD116F44030A16A4908491EB0EB014F50
:101A900005D116F07060E16AB0EB016F01D0012052
:101AA00000E00020BDE8F28308380240043802401C
:101AB0000038024000004742800E4742743802401E
:101AC00040380240007000407038024060004742D9
:101AD0002DE9F04104000D00002C01D1012095E01A
:101AE000584F386810F00700A84207D23D70386898
:101AF00010F00700A84201D0012087E0207880077D
:101B000016D52078400704D54F48016851F4E051BC
:101B100001602078000704D54B48016851F460410A
:101B2000016049490A6832F0F002A06802430A6085
:101B30002078C00738D56068012805D1434800687F
:101B4000800313D4012061E06068022802D060683D
:101B5000032805D13D480068800107D4012055E0E5
:101B60003A480068800701D401204FE0DFF8D880B0
:101B7000D8F800108908890060680143C8F800108F
:101B800001F010F80600D8F8000010F00C006168B1
:101B9000B0EB810F08D001F005F8801B41F28931CC
:101BA0008842F0D3032031E0386810F00700854206
:101BB00007D23D70386810F00700A84201D001201C
:101BC00024E02078400706D51F490A6832F4E05225
:101BD000E06802430A602078000707D51A480168C8
:101BE00031F46041226951EAC201016000F0E0FF76
:101BF0001749154A1268C2F30312895CC840154997
:101C000008601548006800F02BF80020BDE8F0815E
:101C100010480068704780B5FFF7FAFF0F490A4A7D
:101C20001268C2F38222895CC84002BD80B5FFF70A
:101C3000EFFF0A49044A1268C2F34232895CC84085
:101C400002BD0000003C024008380240003802405B
:101C5000B03500080400002000000020EC3500082A
:101C600010B504004FF47A700D490978B0FBF1F01B
:101C70000C490968B1FBF0F0FEF7EAFE002801D03C
:101C800001200CE0102C09D2002221005FF0FF306F
:101C9000FEF7C2FE04480460002000E0012010BDF1
:101CA0000A000020040000200000002081B0002075
:101CB00000900C48016851F480410160006810F404
:101CC000804000900098002000900748016851F083
:101CD00080510160006810F080500090009801B0C1
:101CE000704700BF443802404038024070B50400DD
:101CF000002C01D10120AEE094F82000002802D190
:101D00002000FFF715F82068006850F001002168F6
:101D1000086000F047FF050020684068C0070DD448
:101D200000F040FF401B0B28F6D3606A50F40030EF
:101D30006062052084F8200001208CE020680068A3
:101D400030F002002168086000F02CFF06002068D7
:101D5000406880070DD500F025FF801B0B28F6D3C7
:101D6000606A50F400306062052084F82000012091
:101D700071E0207E012806D12068006850F08000C4
:101D80002168086005E02068006830F08000216864
:101D90000860607E012806D12068006850F040008D
:101DA0002168086005E02068006830F04000216884
:101DB0000860A07E012806D12068006850F020004D
:101DC0002168086005E02068006830F02000216884
:101DD0000860E07E012806D12068006830F010001D
:101DE0002168086005E02068006850F01000216854
:101DF0000860207F012806D12068006850F00800A4
:101E00002168086005E02068006830F0080021685B
:101E10000860607F012806D12068006850F0040047
:101E20002168086005E02068006830F0040021683F
:101E30000860A168E06801432069014360690143CB
:101E40006068401E01432068C1610020606201207B
:101E500084F82000002070BD70B50400002C01D172
:101E60000120E1E094F83D00002805D1002084F82D
:101E70003C002000FFF702F8242084F83D00206891
:101E8000006840084000216808602068006850F43D
:101E90000040216808602068006830F40040216834
:101EA0000860FFF7B8FE0100DFF880016268824237
:101EB00008D2DFF87C21914201D2012200E0002209
:101EC000D2B207E0DFF86C21914201D2012200E09A
:101ED0000022D2B2012A01D10120A5E0DFF8582169
:101EE000B1FBF2F223685B689B099B0113432568F1
:101EF0006B6023681B6A6568854201D2551C08E047
:101F00004FF4967505FB02F54FF47A76B5FBF6F5BE
:101F10006D1C9B099B012B4325682B622368DB69A1
:101F20006568854214D2481E65686D00B0FBF5F007
:101F3000401C0005000D042801D204253EE0481E87
:101F400065686D00B0FBF5F56D1C2D052D0D35E0B8
:101F5000A068002809D14D1E666803204643B5FBE2
:101F6000F6F0401C0005000D0AE04D1E66681920C1
:101F70004643B5FBF6F0401C0005000D50F48040D0
:101F8000000501D1012519E0A068002809D14D1EE6
:101F9000666803204643B5FBF6F56D1C2D052D0D37
:101FA0000AE04D1E666819204643B5FBF6F56D1C28
:101FB0002D052D0D55F4804555F40045DFF87C00C6
:101FC00003402B432068C3612068036833F0C003DB
:101FD000E0690343206A0343206803602068836844
:101FE000DFF85C00034020690343E0680343206896
:101FF00083602068C3681B0A1B02A06903436069F1
:1020000003432068C3602068006850F00100236823
:10201000186000202064202084F83D000020206308
:10202000002084F83E00002070BD0000A186010061
:1020300080841E0000093D0040420F000030FFFF79
:10204000007CFFFF70B504000125002C01D10120A8
:1020500057E0607F002804D1002020772000FEF7A1
:1020600066FF022060772068C068C00640D4CA209E
:1020700021684862532021684862200000F05EF821
:1020800006003000C0B200281ED120688168DFF849
:10209000A400014020688160206881686068014375
:1020A000206901436069014320688160E06821681C
:1020B000086120680069A16850EA01402168086150
:1020C000200000F063F806003000C0B200280BD1F9
:1020D0002068006C30F48020216808642068016C5E
:1020E000A069014320680164FF202168486200E084
:1020F00000263000C0B2002801D1012060773000F6
:10210000C0B270BD70B5040000250B482168C860DE
:1021100000F048FD06002068C068800608D400F082
:1021200041FD801B40F2E9318842F4D3032000E0F6
:10213000002070BDBFFF8FFF5F7F010070B50400FE
:10214000002500262068C06840061CD42068C068AE
:1021500050F080002168C86000F024FD0500206870
:10216000C06840060FD43000C0B201280BD000F088
:1021700019FD401B40F2E9318842F0D3042060771A
:1021800001200600EBE73000C0B270BD38B5040096
:1021900000252068C06830F080002168C860206891
:1021A0008068800608D42000FFF7ACFF002803D029
:1021B00004206077012005002800C0B232BD000075
:1021C0002DE9F843050000260024287810F0050FBB
:1021D0002CD0DFF828710020386000F0E3FC804646
:1021E000DFF81C91D9F80000000107D500F0DAFCF7
:1021F000B0EB08000328F3D303207CE06868A968EB
:10220000090751EA8011DFF8FC0001600120386005
:1022100000F0C8FC0600D9F80000000106D400F068
:10222000C1FC801B0328F6D3032064E028788007D4
:1022300060D5002000903448016851F08051016061
:10224000006810F0805000900098304F386850F4CB
:102250008070386000F0A6FC06003868C00506D41F
:1022600000F0A0FC801B0328F7D3032043E0284F95
:10227000386810F440700400002C20D0E86810F496
:10228000407084421BD0386830F44070040021480C
:1022900001210160002101603C603868C0070ED553
:1022A00000F080FC06003868800708D400F07AFC53
:1022B000801B41F289318842F5D303201BE0E86896
:1022C00010F44070B0F5407F09D113490A6832F428
:1022D000F812EB68114803401A430A6004E00E4804
:1022E000016831F4F81101603868E9680905090DE1
:1022F000084338600020BDE8F283000068004742D0
:1023000000380240843802404038024000700040EB
:1023100070380240400E474208380240FFFCFF0F71
:1023200010B50400002C01D101205FE0606A002894
:1023300006D16068B0F5827F06D00020E06103E03E
:1023400000202061002060610020A06294F851000C
:10235000002805D1002084F850002000FEF72BFE55
:10236000022084F851002068006830F040002168A5
:102370000860606810F48270A16811F40441084399
:10238000E16811F400610843217C11F00201084367
:10239000217D11F001010843A16911F40071084386
:1023A000217F11F03801084394F8201011F08001CA
:1023B0000843A16A11F40051084321680860A0692C
:1023C000000C10F0040094F8241011F010010843E0
:1023D000216848602068C06930F400602168C861E5
:1023E00000206065012084F85100002010BD00002D
:1023F00010B50400002C01D1012035E0A0690028AF
:10240000FFD194F84100002805D1002084F8400055
:102410002000FEF75FFE242084F841002068C06899
:1024200030F400502168C860200000F01EF82068D9
:10243000006930F49040216808612068406930F0FC
:102440002A00216848612068C06850F40050216863
:10245000C86000206064202084F84100202084F8B7
:10246000420000206063002010BD2DE9F84F0500F8
:102470002868016931F44051E86801432868016126
:10248000D5F80890286950EA0909686950EA0909ED
:10249000E86950EA09092868C1688D48014059EA8D
:1024A00001012868C1602868416931F44071A86958
:1024B00001432868416128688649884203D028681A
:1024C0008549884203D1FFF7B1FB040002E0FFF722
:1024D000A2FB0400E869B0F5004F7BD17FF06308F0
:1024E0001926002722000023A6FB020106FB031188
:1024F00007FB02116A6800235B0043EAD2735200B3
:1025000000F0A4FB6421B0FBF1FB22000023A6FB3A
:10251000020106FB031107FB02116A6800235B003E
:1025200043EAD273520000F091FB8246220000235E
:10253000A6FB020106FB031107FB02116A680023D8
:102540005B0043EAD273520000F080FB6421B0FBD1
:10255000F1F008FB00A0C00032306421B0FBF1F0C4
:10256000400010F4F87010EB0B108346220000239B
:10257000A6FB020106FB031107FB02116A68002398
:102580005B0043EAD273520000F060FB82462200F7
:102590000023A6FB020106FB031107FB02116A6878
:1025A00000235B0043EAD273520000F04FFB64212A
:1025B000B0FBF1F008FB00A85FEAC80818F1320888
:1025C0006420B8FBF0F010F0070010EB0B00296856
:1025D000886079E07FF06308192600272200002335
:1025E000A6FB020106FB031107FB02116A68002328
:1025F0009B0043EA9273920000F028FB6421B0FB39
:10260000F1FB22000023A6FB020106FB031107FBDE
:1026100002116A6800239B0043EA9273920000F063
:1026200015FB824622000023A6FB020106FB0311D4
:1026300007FB02116A6800239B0043EA9273920031
:1026400000F004FB6421B0FBF1F008FB00A00001E6
:1026500032306421B0FBF1F010F0F00010EB0B1001
:10266000834622000023A6FB020106FB031107FBA1
:1026700002116A6800239B0043EA9273920000F003
:10268000E5FA824622000023A6FB020106FB0311A5
:1026900007FB02116A6800239B0043EA92739200D1
:1026A00000F0D4FA6421B0FBF1F008FB00A85FEA67
:1026B000081818F132086420B8FBF0F010F00F0091
:1026C00010EB0B0029688860BDE8F18F0000000066
:1026D000F369FFFF00100140001401407CB50400C5
:1026E000002C01D10120B2E0266894F8950400285E
:1026F00005D1002084F894042000FEF79AFD032001
:1027000084F89504B6F1A04F01D10020A071206893
:1027100000F0F8FB211D83B068460D2200F0C6FDD5
:102720000EBC206800F0AAFB002804D0022084F828
:10273000950401208BE00021206800F0EAFB0028CE
:1027400004D0022084F89504012080E000200100DC
:102750002279C9B291422DD224210200D2B24A4339
:102760002244012353750200D2B24A432244107519
:102770000200D2B24A4322440300DBB2D3850200F6
:10278000D2B24A432244002313760200D2B24A4313
:1027900022440023D3610200D2B24A4322440023E0
:1027A00013620200D2B201FB02F1214400224A620C
:1027B000401CCCE7002528002179C0B288422CD2E9
:1027C00024202900C9B241432144002281F8552226
:1027D0002900C9B24143214481F854522900C9B2A9
:1027E00041432144002281F858222900C9B24143C3
:1027F00021440022C1F85C222900C9B2414321448E
:102800000022C1F860222900C9B200FB01F0204477
:102810000021C0F864126D1CCDE7211D83B068460D
:102820000D2200F043FD0EBC206800F0AAFB00283A
:1028300004D0022084F89504012008E00020607490
:10284000012084F89504206800F0F0FC002076BD9B
:1028500038B504000025002C01D1012029E0A06A30
:10286000DFF828138842206C002807D12000FEF7EB
:1028700099FD00206064002084F83C00206CC006B4
:1028800010D4206C30F4885050F0020020642000F6
:1028900000F0CEF8002060640120216C60F301019B
:1028A000216401E001200500002084F83C0028009C
:1028B000C0B232BD38B402000020009092F83C0053
:1028C000012801D10220B1E0012082F83C00086813
:1028D0000A2818D31068C368072408680A38032533
:1028E00010FB05F08440A3431068C3601068C36800
:1028F0008C6808680A38032510FB05F084402343E0
:102900001068C36013E01068036907240D68032092
:102910004543AC40A34310680361106803698C68A9
:102920000D6803204543AC402343106803614868A9
:10293000072818D21068436B1F244868401E0525DD
:1029400010FB05F08440A343106843631068436B99
:102950000C884868401E052510FB05F08440234381
:102960001068436333E048680D2818D21068036B81
:102970001F244868C01F052510FB05F08440A343B1
:10298000106803631068036B0C884868C01F052536
:1029900010FB05F0844023431068036317E01068C0
:1029A000C36A1F2448680D38052510FB05F08440D4
:1029B000A3431068C3621068C36A0C8848680D3866
:1029C000052510FB05F0844023431068C362724B59
:1029D00072481468844206D10C68122C03D15C68DA
:1029E00054F480045C60146884421BD10868102889
:1029F00002D00868112815D1586850F400005860BA
:102A0000086810280ED162480068624CB0FBF4F4EC
:102A10000A20444300940098002803D00098401EE8
:102A20000090F8E7002082F83C00002032BC70479C
:102A3000594A516831F440315160536841680B4341
:102A400053600168496831F4807103685960016816
:102A50004968036951EA03210368596001684968BC
:102A600031F040710368596001684B6881680B431D
:102A700001684B600168896831F4006103689960FE
:102A800001688B68C1680B4301688B60816A3F4BAA
:102A9000994218D00168896831F0706103689960C3
:102AA00001688B68816A0B4301688B6001688968E3
:102AB00031F040510368996001688B68C16A0B432B
:102AC00001688B600BE00168896831F07061036810
:102AD00099600168896831F0405103689960016824
:102AE000896831F002010368996001688968037E92
:102AF00051EA43010368996090F82010002914D02E
:102B00000168496851F400610368596001684968C7
:102B100031F460410368596001684968436A5B1E8B
:102B200051EA43310368596005E00168496831F4AE
:102B30000061036859600168C96A31F47001036873
:102B4000D9620168C96AC3695B1E51EA035103680F
:102B5000D9620168896831F400710368996001687D
:102B6000896890F8303051EA432103689960016820
:102B7000896831F4806103689960016889684369F4
:102B800051EA832103689960704700000100000F3B
:102B90000400002040420F000023014000200140BB
:102BA0007047000001480068704700BF140C002007
:102BB0002DE9F04100240025002600271F48006869
:102BC00010F00C00002804D0042804D0082804D0F9
:102BD00031E01B4830E01B482EE0DFF86C80D8F86D
:102BE000000010F03F000400D8F8000040020CD5AF
:102BF000D8F80000C0F388101249A1FB00012200A0
:102C0000002300F023F805000BE0D8F80000C0F323
:102C100088100B49A1FB00012200002300F016F8E8
:102C20000500D8F80000C0F30140401C4000060039
:102C3000B5FBF6F000E00248BDE8F081083802403C
:102C40000024F40040787D0104380240BBBBE1B1B0
:102C5000B2F5803F80F07E80022A1ED98C46B1FBFF
:102C6000F2F102FB11C31B0443EA1043B3FBF2FC75
:102C700002FB1C3380B240EA0343B3FBF2F002FBD9
:102C8000103240EA0C4000237047022A05D98446DE
:102C9000B0FBF2F002FB10C270474AB105D100F060
:102CA000010249085FEA30007047002200237047A4
:102CB00000F050BB0B000200002100207047904242
:102CC00071EB030CF6D3B3F5803F2FD2F0B5B3FA16
:102CD00083F7B1FA81F4A7F10F0E3D1B5340CEF1FB
:102CE000200602FA0EF2F3415340B5F10F0746D821
:102CF0000F3C2C444140C4F12006A040F14141402A
:102D0000B1FBF3F603FB1611A2FB0645001BA9411C
:102D100002D2761E8018594180EA010221FA0EF390
:102D200062FA0EF200215A403046F0BD30B4B1FBD9
:102D3000F3FC03FB1C11A2FB0C45001BA94103D2B1
:102D4000ACF1010C8018594130BC02460B4660467C
:102D500000217047B2F1807F65D3F0B5B2FA82F7F7
:102D6000B1FA81F4C7F10F063D1B22FA06F307F111
:102D7000110EF24120355A40B5F10F07B8D9414044
:102D8000C4F12006A040F1414140B1FBF3FC03FB3C
:102D90001C11A2FB0C45001BA94103D2BCF1010C84
:102DA000801859410F2F12D30F3FC90341EA5041F8
:102DB000B1FBF3F603FB1611A2FB0645D4EBC030C2
:102DC000A94102D2761E8018594146EACC3C07B38D
:102DD0004140C7F12006B840F1414140B1FBF3F654
:102DE00003FB1611A2FB0645001BA94102D2761E69
:102DF0008018594180EA010221FA0EF3C7F120043C
:102E000062FA0EF20CFA07F05A402CFA04F1304341
:102E1000F0BD80EA010221FA0EF3002162FA0EF2FF
:102E200060465A40F0BD8C46B1FBF2F102FB11C383
:102E30001B0243EA1063B3FBF2FC02FB1C331B02D0
:102E40004CEA002043EA1063B3FBF2FC02FB1C33A4
:102E50001B024CEA002043EA1063B3FBF2FC02FBC6
:102E60001C331B024CEA002043EA1063B3FBF2FC64
:102E700002FB1C324CEA0020002370470EB418B548
:102E800004009DF81100012818D1A06B30F48030A7
:102E9000A063E168DFF890030140E160E06830F48E
:102EA0004010E0609DF81800012803D1E06850F45C
:102EB0008010E060200000F0D3F913E0E06850F0EB
:102EC0004000E060200000F0CBF99DF815100029CB
:102ED00004D1A16B51F48031A16303E0A16B31F403
:102EE0008031A1639DF80E10012907D1A16851F02E
:102EF0000601A160A16851F02001A160C0B212BC1E
:102F00005DF810FB010088684008400088600020E0
:102F1000704770B504000D000026E06830F0C04036
:102F2000E0602800C0B201280FD1E06850F00050E6
:102F3000E0600A2000F010FA0A36200000F08AF95A
:102F4000012818D0C82EF4D315E02800C0B20028FC
:102F50000FD1E06850F08040E0600A2000F0FCF9FA
:102F60000A36200000F076F9002804D0C82EF4D3E9
:102F700001E0012004E0C82E01D1012000E0002082
:102F800070BD0EB4F0B504000025260000270F2FF9
:102F900006D2002004EB8701C1F804017F1CF6E78C
:102FA0009DF81E00002814D116F50060406850F00E
:102FB000020016F500614860A06B50F40010A06399
:102FC000A06B30F40020A063A06B30F48020A063DD
:102FD00007E0A06B30F40010A063A06B50F4002059
:102FE000A063002016F5606108609DF819000128B3
:102FF0000DD19DF81700002804D10021200000F019
:1030000004F908E00121200000F0FFF803E00321AB
:10301000200000F0FAF81021200000F0AEF800289F
:1030200001D001200500200000F0CCF8002801D0DC
:1030300001200500002016F500610861002016F54A
:1030400000614861002016F50061C86100209DF80C
:10305000141088422DD216EB401111F51061096849
:10306000002911D5002807D15FF0006116EB40124E
:1030700012F5106211600DE05FF0904116EB401206
:1030800012F51062116005E0002116EB401212F5F6
:103090001062116016EB401111F5106100220A61F7
:1030A00016EB401111F510614FF67F328A60401C1B
:1030B000CDE700219DF8140081422DD216EB41107E
:1030C00010F530600068002811D5002907D15FF0A5
:1030D000006016EB411212F5306210600DE05FF0F7
:1030E000904016EB411212F53062106005E00020AE
:1030F00016EB411212F53062106016EB411010F51C
:1031000030600022026116EB411010F530604FF67E
:103110007F328260491CCDE716F50060006930F40B
:10312000807016F5006210610020A0617FF0804081
:1031300060619DF81600002803D1A06950F01000CE
:10314000A061A269DFF814010243A2619DF81A0090
:10315000002803D0A06950F00800A0619DF81E006F
:10316000012805D1A06940F0804050F00400A06122
:103170002800C0B2F0BC5DF810FB81B00200002056
:1031800000900098401C0090DFF81C01009B8342D7
:1031900001D3032014E01369002BF2D50023009320
:1031A0008B0153F020031361009B5B1C0093009B79
:1031B000834201D3032003E013699B06F4D400206B
:1031C00001B0704781B00100002000900098401CC1
:1031D0000090DFF8D400009A824201D3032012E06D
:1031E0000A69002AF2D50022009210220A61009A90
:1031F000521C0092009A824201D3032003E00A6924
:10320000D206F4D4002001B0704710B402001300BD
:1032100013F5006004680800C0B2044313F50060B1
:103220000460002010BC7047BFFFBDFF01000A0012
:1032300012F5606000688008800012F56063186015
:1032400012F50060406850F0020012F5006358600B
:1032500000207047406910F00100704700383C8042
:1032600081B00100002000900098401C00900E48A2
:10327000009A824201D3032014E00A69002AF3D5A0
:10328000002200920A6952F001020A61009A521C5F
:103290000092009A824201D3032003E00A69D20718
:1032A000F4D4002001B070470100000F62B38B0717
:1032B00008D0521E11F8013B00F8013B00F02480B9
:1032C0008B07F6D1830740F0208000BF103A07D368
:1032D00030B4B1E83810103AA0E83810F9D230BC58
:1032E000530724BFB1E80810A0E8081044BF51F804
:1032F000043B40F8043BD20724BF31F8022B20F8EE
:10330000022B44BF0B7803707047121F17D35B006A
:1033100009D151F8043B20F8023B1B0C121F20F886
:10332000023BF6D20BE051F8043B00F8013B1B0ACC
:1033300020F8023B1B0C121F00F8013BF3D238BFF0
:10334000121D521E24BF11F8013B00F8013BF8D8B2
:10335000704700007047000070B50400FFF722FCC2
:103360000500260016F1010F02D004480078361837
:10337000FFF718FC401BB042FAD370BD0A000020D2
:10338000FEE7FEE7FEE7FEE7FEE77047704770479F
:1033900080B500F07BF832480188491C0180314833
:1033A0000188491C018001BD80B52020FEF76AF923
:1033B0002D480178491C01700178022901DB0021A8
:1033C000017000202949086029480188491C0180B2
:1033D00023490A88B2F57A7F0BDB0288254B1A80D5
:1033E00000220A80002101804FF400512248FEF79C
:1033F0003CF901BD80B52148FCF758FF1B48016826
:10340000491C01601E4902680B889A420AD3098848
:1034100032310068814205D3012280211948FEF72C
:1034200017F904E0002280211648FEF711F901BDCA
:1034300080B54FF40060FEF725F94FF40050FEF719
:1034400021F911480188491C01800D480188323159
:1034500001800188B1F5487F01DB6421018001BD55
:103460001E0C0020200C0020270C0020180C00202F
:10347000220C0020240C002000100240C80A00206A
:1034800008000020000402401C0C002003480168D2
:10349000034A127889180160704700BF140C00209D
:1034A0000A00002030B4002512E050F8042BD307A6
:1034B00044BF4A44521E091F042942F8045BFAD251
:1034C00013468C0744BF15809B1CC90748BF1D705D
:1034D00050F8041B0029E8D130BC704710B50749EB
:1034E00079441831064C7C44163404E00A68081DFF
:1034F000114488470146A142F8D110BD2C000000BC
:103500004C0000004EF68851CEF20001086840F4ED
:1035100070000860BFF34F8FBFF36F8F4FF00170E3
:10352000E1EE100A704700007DFFFFFF1C0C000059
:103530000C00002000000000EBD1FFFF0C00000099
:10354000A0000000000000200000000000F00DF8C6
:10355000002801D0FFF7C2FFAFF300800020AFF3D7
:103560000080FDF7F3F800F002F80120704700F04A
:1035700001B800000746384600F002F8FBE70000FB
:1035800080B5AFF30080024A11001820ABBEFBE704
:10359000260002000548014603B4684680F3098806
:1035A000AFF30080FFF7AEFFFFF7D0FFA5EDF5FE0C
:1035B00000000000000000000102030406070809E3
:1035C0000148804701480047D1350008953500087B
:1035D0000248016851F470010160704788ED00E015
:1035E000100000000024F4000100010000000000B1
:1035F00001020304FFF7FEBFFFF7FEBFFFF7FEBFA8
:10360000FFF7FEBFFFF7FEBFFFF7FEBFFFF7FEBFEE
:10361000FFF7FEBFFFF7FEBFFFF7FEBFFFF7FEBFDE
:10362000FFF7FEBFFFF7FEBFFFF7FEBFFFF7FEBFCE
:10363000FFF7FEBFFFF7FEBFFFF7FEBFFFF7FEBFBE
:10364000FFF7FEBFFFF7FEBFFFF7FEBFFFF7FEBFAE
:10365000FFF7FEBFFFF7FEBFFFF7FEBFFFF7FEBF9E
:10366000FFF7FEBFFFF7FEBFFFF7FEBFFFF7FEBF8E
:10367000FFF7FEBFFFF7FEBFFFF7FEBFFFF7FEBF7E
:10368000FFF7FEBFFFF7FEBFFFF7FEBFFFF7FEBF6E
:10369000FFF7FEBFFFF7FEBFFFF7FEBFFFF7FEBF5E
:1036A000FFF7FEBFFFF7FEBFFFF7FEBFFFF7FEBF4E
:1036B000FFF7FEBFFFF7FEBFFFF7FEBFFFF7FEBF3E
:1036C000FFF7FEBFFFF7FEBFFFF7FEBFFFF7FEBF2E
:1036D000FFF7FEBFFFF7FEBFFFF7FEBFFFF7FEBF1E
:1036E000FFF7FEBFFFF7FEBFFFF7FEBFFFF7FEBF0E
:1036F000FFF7FEBFFFF7FEBFFFF7FEBFFFF7FEBFFE
:10370000FFF7FEBFFFF7FEBFFFF7FEBFFFF7FEBFED
:10371000FFF7FEBFFFF7FEBFFFF7FEBFFFF7FEBFDD
:0C372000FFF7FEBFFFF7FEBFFFF7FEBF84
:040000050800359525
:00000001FF
